:020000040800F2
:10000000480C002019290008DD020008DF02000862
:10001000E3020008E7020008EB020008000000000D
:10002000000000000000000000000000EF020008D7
:10003000F102000800000000F3020008F5020008C9
:100040003329000833290008332900083329000820
:1000500033290008332900088F2000083F210008B9
:10006000A7220008F32100083329000833290008DB
:1000700033290008332900083329000833290008F0
:1000800033290008332900083329000833290008E0
:1000900033290008332900083329000833290008D0
:1000A00033290008332900083329000833290008C0
:1000B00005240008552600083329000833290008C4
:1000C00033290008332900083329000833290008A0
:1000D000332900088F280008D71D00089D1B000841
:1000E0003329000833290008332900083329000880
:1000F0003329000833290008332900083329000870
:10010000332900083329000833290008332900085F
:10011000332900083329000833290008332900084F
:10012000332900083329000833290008332900083F
:1001300000F002F800F050F80AA090E8000C8244A9
:100140008344AAF10107DA4501D100F045F8AFF286
:10015000090EBAE80F0013F0010F18BFFB1A43F0A5
:1001600001031847A06F0000C06F0000103A24BFC1
:1001700078C878C1FAD8520724BF30C830C144BF0C
:1001800004680C607047000000230024002500264E
:10019000103A28BF78C1FBD8520728BF30C148BFEA
:1001A0000B607047662906F06087642904F0668654
:1001B000002070471FB505F039FA04000020002127
:1001C00005F09AFF401C60600020002105F0AAFFA6
:1001D000E0601FBD10B510BD05F04AFB1146FFF7EA
:1001E000E9FF00F059F805F068FB03B4FFF7F2FFF0
:1001F00003BC02F0F1FA000010B504460121002012
:1002000000F0DDFA0221002000F0D9FA3C202C4950
:100210000880012C02D17020091F0880022C03D114
:1002200028202749091F08800421002002F00BFA2A
:100230002448006838B92449002002F0F8F9012068
:100240002049086007E01F480068012803D11F49C2
:10025000002002F0ECF94FF47A7002F090FA4FF4BB
:100260007A7002F08CFA5D20154908804FF47A709C
:1002700002F085FA012C04D16E201149091F088073
:1002800005E0022C03D12A200D49091F08804FF4F4
:100290007A7002F074FA10BD11E0022002F0C2F888
:1002A0000646304606F06CFB044622460B4608A084
:1002B00004F0D8FD4FF47A7002F061FA00BFECE769
:1002C000380800400C000020C0F9FFFF12FDFFFFBE
:1002D000733D313025660D0A00000000704700BFF5
:1002E000FEE700BFFEE700BFFEE700BFFEE7704786
:1002F00070477047704700000CB5002001900090D7
:100300006C48006840F480306A49086000BF694862
:10031000006800F4003000900198401C01900098A3
:1003200018B90198B0F5A06FF1D16248006800F4E7
:10033000003010B10120009001E0002000900098F2
:10034000012843D15C48006840F010005A49086019
:100350000846006820F0030008600846006840F086
:1003600002000860534840685249486008464068A7
:1003700048600846406840F480604860084640682D
:1003800020F47C1048600846406840F4E81048605B
:100390000846006840F08070086000BF454800686B
:1003A00000F000700028F9D04248406820F00300B7
:1003B000404948600846406840F00200486000BF7D
:1003C0003C48406800F00C000828F9D10CBD10B57D
:1003D000FFF792FF10BD10B53648006840F00100ED
:1003E000344908600846406834490840314948604B
:1003F00008460068324908402E49086008460068EF
:1004000020F4802008600846406820F4FE00486020
:100410004FF41F008860FFF7DAFF4FF000602949B2
:10042000086010BD10B5002100200022214B5B6840
:1004300003F00C0121B1042906D0082928D107E0D6
:10044000214B224C236027E01F4B204C236023E0EC
:10045000184B5B6803F47010164B5B6803F4803232
:10046000022303EB904022B9194B4343174C2360FE
:100470000DE0104B5B6803F4003323B1144B43438E
:10048000124C236003E0104B4343104C236003E005
:100490000D4B0E4C236000BF00BF064B5B68C3F3DF
:1004A00003130C4CE15C094B1B68CB40074C2360E9
:1004B00010BD000000100240002002400000FFF8C4
:1004C000FFFFF6FE08ED00E000127A0010000020A9
:1004D00000093D00140000202DE9F04188B00446D9
:1004E0000D4616461F46DDF838800121042002F033
:1004F000BDFD0121480602F0C6FD4FF48050ADF865
:100500001C0003208DF81E0018208DF81F0007A97D
:10051000FE4802F0EFFA4FF40060ADF81C004820EE
:100520008DF81F0007A9F94802F0E4FA00208DF8C1
:1005300016008DF817008DF8180001208DF81900AD
:1005400000208DF81A008DF81B008DF812808DF8B0
:1005500013408DF814608DF81550ADF8107004A993
:10056000EB4802F000FE00208DF80A008DF80B0029
:1005700001208DF80C000020ADF80000ADF802005D
:10058000ADF80400ADF80600ADF8080001208DF8C4
:100590000D00684602F071FE002008B0BDE8F08151
:1005A000F0B585B007460D4600244FF4A0700090CA
:1005B0000120019000208DF808008DF809008DF8C9
:1005C0000A5000BF05E0395D0DF10B000155601CBC
:1005D00084B2AC42F7DB6946CD4802F03DFF0646E7
:1005E000002401E0601C84B23146C94802F0CCFF0F
:1005F00018B940F6FF708442F4DB40F6FF70844285
:1006000002DB012005B0F0BD0020FBE7F0B585B0AE
:1006100007460D4600244FF4A07000900220019080
:1006200000208DF808008DF809008DF80A5000BFF1
:1006300005E0395D0DF10B000155601C84B2AC4240
:10064000F7DB6946B24802F007FF0646002401E0E6
:10065000601C84B23146AE4802F096FF18B940F6ED
:10066000FF708442F4DB40F6FF70844202DB01201D
:1006700005B0F0BD0020FBE730B585B00546002190
:10068000A34803F061F810B9002005B030BD6A46F8
:1006900000219F4802F0D5FF002404E00DF10B007B
:1006A000005D2855641C082CF8D39DF80A00ECE77F
:1006B0002DE9F04385B007460C46154698460026BE
:1006C00008F5A0700090002001908DF808008DF8CA
:1006D000090008208DF80A00A6208DF80B008DF87F
:1006E0000C70E9B28DF80D1029128DF80E10E1B2E0
:1006F0008DF80F1021128DF8101000218DF81110B7
:100700008DF812106946824802F0A6FE814600BFAD
:1007100001E0701C86B249467D4802F035FF18B9E9
:1007200040F6FF708642F4DB40F6FF70864203DB42
:10073000012005B0BDE8F0830020FAE7F0B585B0F0
:1007400004460E46002506F5A0700090002001909A
:100750008DF808008DF8090008208DF80A00A12006
:100760008DF80B0000218DF80C108DF80D108DF810
:100770000E10E1B28DF80F10210A8DF81010002133
:100780008DF811108DF812106946614802F064FE70
:10079000074600BF01E0681C85B239465C4802F09C
:1007A000F3FE18B940F6FF708542F4DB40F6FF70A7
:1007B000854202DB012005B0F0BD0020FBE7F0B56B
:1007C00085B004460E46002506F5A0700090002076
:1007D00001908DF808008DF8090008208DF80A00B6
:1007E000A2208DF80B0000218DF80C108DF80D1053
:1007F0008DF80E10E1B28DF80F10210A8DF810104F
:10080000210C8DF81110210E8DF812106946404808
:1008100002F022FE074600BF01E0681C85B239469F
:100820003B4802F0B1FE18B940F6FF708542F4DB98
:1008300040F6FF70854202DB012005B0F0BD0020CC
:10084000FBE72DE9F04186B005460C461746002629
:1008500007F5A0700190002002908DF80C008DF833
:100860000D0008208DF80E00A4208DF80F00002147
:100870008DF810108DF8115029128DF812108DF886
:100880001340210A8DF81410210C8DF81510210E3B
:100890008DF8161001A91E4802F0DEFD804600BF4B
:1008A00001E0701C86B24146194802F06DFE18B98D
:1008B00040F6FF708642F4DB40F6FF70864203DBB1
:1008C000012006B0BDE8F0810020FAE770B586B0DF
:1008D0000546002405F5A0700190002002908DF8D7
:1008E0000C008DF80D0008208DF80E0081208DF889
:1008F0000F0000218DF810108DF811108DF81210D6
:100900008DF813108DF8141004E000000008014069
:10091000006400408DF815108DF8161001A970487C
:1009200002F09AFD064600BF01E0601C84B2314629
:100930006B4802F029FE18B940F6FF708442F4DBE0
:1009400040F6FF70844202DB012006B070BD00203B
:10095000FBE770B586B00546002405F5A070019050
:10096000002002908DF80C008DF80D0008208DF805
:100970000E0088208DF80F0000218DF810108DF8E2
:1009800011108DF812108DF813108DF814108DF8C9
:1009900015108DF8161001A9514802F05DFD0646AC
:1009A00000BF01E0601C84B231464D4802F0ECFD0E
:1009B00018B940F6FF708442F4DB40F6FF708442C1
:1009C00002DB012006B070BD0020FBE770B586B0E9
:1009D0000546002405F5A0700190002002908DF8D6
:1009E0000C008DF80D0008208DF80E0080208DF889
:1009F0000F0000218DF810108DF811108DF81210D5
:100A00008DF813108DF814108DF815108DF8161040
:100A100001A9334802F020FD064600BF01E0601C3A
:100A200084B231462E4802F0AFFD18B940F6FF708F
:100A30008442F4DB40F6FF70844202DB012006B002
:100A400070BD0020FBE770B586B00546002405F5B3
:100A5000A0700190002002908DF80C008DF80D0020
:100A600008208DF80E0092208DF80F0000218DF8DF
:100A700010108DF811108DF812108DF813108DF8DC
:100A800014108DF815108DF8161001A9144802F0F5
:100A9000E3FC064600BF01E0601C84B2314610480A
:100AA00002F072FD18B940F6FF708442F4DB40F6A4
:100AB000FF70844202DB012006B070BD0020FBE71E
:100AC00020B52046FFF7D8FD2078617800EB0120A3
:100AD000A17800EB0140E17800EB0165284620BDDC
:100AE0000064004070B50546002404E0285D01F074
:100AF000ADF9601CC4B2052CF8DB70BD10B5F3A0D5
:100B000004F0B0F9F748FFF7EDFFF7A004F0AAF9F9
:100B1000642001F034FEF9A004F0A4F9FC48FFF7CA
:100B2000E1FFFCA004F09EF9642001F028FE10BD56
:100B3000FD490A780978491CFB4B1970FB49885418
:100B40000978552903D000211A4611707047F649DB
:100B500009780B2900DAF9E7F4494978512904D0DA
:100B600052290AD0532918D10FE0F149EF4A921CBB
:100B700013680B6052684A600FE0EE49EB4A921C22
:100B800013680B6052684A6007E0EB49E74A921C21
:100B900013680B6052684A6000BF00BF0021E24A40
:100BA000117000BFD2E71CB578E0641C0A2C15DD7B
:100BB0000024C6A004F056F9CA48FFF793FFCAA064
:100BC00004F050F9642001F0DAFDCCA004F04AF9F9
:100BD000DA48FFF787FFCFA004F044F94FF4FA702A
:100BE00001F0CDFDD449B1F9040006F075F84FF0DD
:100BF0008E41019005F05EFF8046D14906F0B8F8BD
:100C0000074605F0BDFE05462A460B46CDA004F07A
:100C100029F901F059F8054606F05EF88146484684
:100C200005F0AEFE05462A460B46CAA004F01AF9A6
:100C3000012001F0F7FB8246142001F0A0FD032003
:100C400001F0F0FB8346584605F09AFE05460E4635
:100C5000504605F095FE07463A460B46C2A0CDE940
:100C6000005604F0FFF8C748006818B9C6A004F0A1
:100C7000F9F802E0C9A004F0F5F8C248001D0068C8
:100C800018B9CBA004F0EEF802E0CEA004F0EAF828
:100C9000D1A004F0E7F80A2001F071FD85E770B5F6
:100CA0008AA004F0DFF88F48FFF71CFF8EA004F045
:100CB000D9F8642001F063FD90A004F0D3F89F48B8
:100CC000FFF710FF93A004F0CDF8642001F057FD6A
:100CD0000121CB48FFF773FD022142F21070FFF7AC
:100CE0006EFD052001F04BFD0121C648FFF767FDB1
:100CF000022144F62060FFF762FD052001F03FFD70
:100D00000121C148FFF75BFD022147F23050FFF798
:100D100056FD00BF9B4800680128FBD04FF43E7091
:100D200001F02DFD0121B848FFF749FD022142F2F3
:100D30001070FFF744FD20E07F49B1F9040005F091
:100D4000CBFF06464FF08E4105F0B4FE05467C49C8
:100D500006F00EF80446204605F012FE0546002275
:100D6000AA4B05F05DFC08D201210020FFF727FD0A
:100D700002210020FFF723FD00E0DDE700BF70BD8A
:100D80002DE9F0478BE14CF2503005460446032034
:100D900001F048FB804603E0032001F043FB80465E
:100DA000404605F0EDFD06460022994B05F0C8FCD3
:100DB000F2D3404605F0E4FD06460022954B05F0CF
:100DC000BFFC37D2404605F0DBFD06460022924BC1
:100DD00005F026FC20D29149404606F0D1F8814624
:100DE000574905F0C5FF07468D4905F0F5FD064654
:100DF00005F056FF04468949404606F0C1F8814691
:100E00004F4905F0B5FF0746854906F0AEF806469E
:100E100005F046FF05464DE0404605F0B1FD0646AB
:100E200000227D4B05F08CFC44D84DF2E4444BF29B
:100E3000BC153FE0404605F0A3FD06460022754B79
:100E400005F0EEFB36D2404605F09AFD064600223C
:100E5000744B05F075FC20D24146704806F090F8BE
:100E60008146374905F084FF07466D4905F0B4FD1A
:100E7000064605F015FF04464146684806F080F82E
:100E800081462F4905F074FF0746654906F06DF865
:100E9000064605F005FF05460CE0404605F070FDEE
:100EA000064600225F4B05F0BBFB03D84BF2BC1497
:100EB0004DF2E44501216042FFF781FC0221284602
:100EC000FFF77DFC2A462146AEE00000D5FDD4DACE
:100ED000BDF8D0D0BCD3CBD9B6C8D0A3D7BC0D0AEF
:100EE0000000000030000020BCD3CBD9B6C8D0A38E
:100EF000D7BCCDEAB3C90D0A00000000BDF8D0D0C0
:100F00005AD6E1BDC7B6C8C7E5C1E30D0A00000067
:100F10002D0000205AD6E1BDC7B6C8C7E5C1E3CD54
:100F2000EAB3C90D0A00000054000020A40000200C
:100F30003C000020440000204C000020280000203D
:100F400000003443416E676C653A252E33660D0A06
:100F50000000000064697374616E63653A20252E99
:100F600032660D0A000000006C6566743A20252E7A
:100F700032662020726967743A20252E3266200D71
:100F80000A00000014012342D7F3B2E0B9E2B5E74A
:100F9000BCECB2E2B5BD0D0A00000000D7F3B2E030
:100FA000B9E2B5E7CEB4BCECB2E2B5BD0D0A0000C3
:100FB000D3D2B2E0B9E2B5E7BCECB2E2B5BD0D0AFE
:100FC00000000000D3D2B2E0B9E2B5E7CEB4BCEC89
:100FD000B2E2B5BD0D0A00002D2D2D2D2D2D2D2D8C
:100FE0002D2D2D2D2D2D2D2D2D2D2D2D2D2D2D2D31
:100FF0002D2D2D2D2D2D2D2D2D2D2D0D0A000000EB
:10100000F0D8FFFFE0B1FFFFD08AFFFF008055C09E
:1010100000C0724000805D4000405E400000EC4235
:101020000050434700C05C40FBA003F01BFFFE489C
:10103000006820B9AFF2B00003F014FF03E0AFF294
:10104000A40003F00FFFF848001D006820B9AFF2BC
:10105000A00003F007FF03E0AFF2980003F002FFE7
:10106000F2A003F0FFFEF048001D0068012816D131
:10107000ED480068012812D10021404605F0DCFD52
:1010800004D0F249404605F03FFF08D20A2001F0A3
:1010900076FBE548001D0068012800D100E072E6FB
:1010A00000BFBDE8F0872DE9F04F89B081460C46BE
:1010B0000020079004900390029087E24CF2503099
:1010C00082460890012001F0ADF90546032001F0A9
:1010D000A9F9064603E0012001F0A4F905462846D7
:1010E00005F04EFC07460022D94B05F029FBF2D350
:1010F00003E0032001F096F90646304605F040FC77
:1011000007460022D24B05F01BFBF2D3079838B9F3
:10111000012001F0F2F90690032001F0EEF90590AC
:1011200004E0012001F07EF905460695284606995F
:1011300005F026FF019005F0B3FDB0F1000B01DBD7
:10114000594601E0CBF10001084605F03FFA074699
:101150000022C04B05F0F4FAE3D304E0032001F0D1
:1011600061F9064605963046059905F009FF01909C
:1011700005F096FDB0F1000B01DB594601E0CBF123
:101180000001084605F022FA07460022B14B05F09F
:10119000D7FAE3D30798401C0790AF49304605F0D3
:1011A000B3FE04D201200390002004900CE0AA4971
:1011B000284605F0A9FE04D20120049000200390E7
:1011C00002E0002004900390049800287DD1039849
:1011D0000028FBD12946304605F096FE76D22946F6
:1011E000304605F0CDFE834605F0CAFB07460022D7
:1011F0009A4B05F015FA32D29949029805F0B8FDDC
:1012000029460190304605F0BBFE9649009005F056
:10121000AFFD8346944905F0DFFB8046019905F058
:10122000AFFE074605F03CFD82468D49029805F069
:101230009FFD29460190304605F0A2FE89490090A5
:1012400005F096FD8346884905F08FFE804601999A
:1012500005F0C2FB074605F023FD089061E0294632
:10126000304605F08DFE834605F08AFB07460022D6
:101270007A4B05F065FA42D82946304605F080FEE3
:10128000834605F07DFB07460022784B05F0C8F940
:1012900035D27349029805F06BFD2946019030461E
:1012A00005F06EFE7249009005F062FD83466E49BE
:1012B00005F092FB8046019905F062FE074605F0B5
:1012C000EFFC82466649029801E009E12FE005F053
:1012D0004FFD29460190304605F052FE64490090CA
:1012E00005F046FD8346604905F03FFE80460199C2
:1012F00005F072FB074605F0D3FC089011E0294683
:10130000304605F03DFE834605F03AFB07460022D5
:10131000564B05F015FA04D84DF2D86A4AF6C87053
:1013200008903146284605F02BFE0290EBE0294656
:10133000304605F0E9FCF9D23146284605F020FE9A
:10134000834605F01DFB07460022444B05F068F973
:1013500032D24349029805F00BFD314601902846F0
:1013600005F00EFE3F49009005F002FD83463E4920
:1013700005F0FBFD8046019905F002FE074605F0E9
:101380008FFC82463649029805F0F2FC3146019006
:10139000284605F0F5FD3349009005F0E9FC834649
:1013A000314905F019FB8046019905F015FB074608
:1013B00005F076FC08908DE03146284605F0E0FD0A
:1013C000834605F0DDFA07460022244B05F0B8F904
:1013D0006ED83146284605F0D3FD834605F0D0FA95
:1013E00007460022214B05F01BF961D21C490298E7
:1013F00005F0BEFC31460190284605F0C1FD1C49B0
:10140000009005F0B5FC8346174905F0AEFD804617
:10141000019905F0B5FD2DE073706565643A2025EE
:1014200064202025640D0A00140123422D2D2D2D4A
:101430002D2D2D2D2D2D2D2D2D2D2D2D2D2D2D2DDC
:101440002D2D2D2D2D2D2D2D0D0A00000000964344
:1014500000C07240000049400000114300001440E9
:10146000000048420000B4420050434700002440BE
:1014700000003443074605F013FC8246FE490298FB
:1014800005F076FC31460190284605F079FDFB49D0
:10149000009005F06DFC8346F94905F09DFA804601
:1014A000019905F099FA074605F0FAFB089011E05A
:1014B0003146284605F064FD834605F061FA07468B
:1014C0000022F04B05F03CF904D84AF6C87A4DF2F8
:1014D000D86008903146284605F052FD029012E08F
:1014E000049838B14AF6E03A4DF6C0200890002042
:1014F000029008E0039830B14DF6C02A4AF6E03079
:101500000890002002900121CAF10000FFF757F96E
:1015100002210898FFF753F95146AFF20410089AD8
:1015200003F0A0FCD848006820B9AFF2A45003F043
:1015300099FC03E0AFF29C5003F094FCD248001DEC
:10154000006820B9AFF2985003F08CFC03E0AFF2D2
:101550008C5003F087FCAFF22C1003F083FCB9F140
:10156000020F08D1C9480068012804D10020C749EA
:10157000843108602BE0C4B9C3480068012804D056
:10158000C148001D0068012820D1052001F0F7F8AE
:10159000BD480068012804D0BB48001D0068012830
:1015A00014D1962001F0EBF811E0012C0ED1B648D1
:1015B000006801280AD1052001F0E1F8B24800686E
:1015C000012803D1962001F0DAF800E076E500BFAB
:1015D00009B0BDE8F08F2DE9FE4F0446D9E149F688
:1015E000404006460546012000F01CFF82460320CD
:1015F00000F018FF814603E0012000F013FF82464F
:10160000504605F0BDF907460022A14B05F098F8B9
:10161000F2D303E0032000F005FF8146484605F0C1
:10162000AFF9074600229A4B05F08AF8F2D35146EB
:10163000484605F069FC7DD25146484605F0A0FCBD
:10164000834605F09DF907460022924B04F0E8FF1F
:1016500032D28949029805F08BFB514601904846E9
:1016600005F08EFC8C49009005F082FB83468B4987
:1016700005F0B2F98046019905F082FC074605F0B5
:101680000FFB05467C49029805F072FB514601901C
:10169000484605F075FC8049009005F069FB8346DB
:1016A0007E4905F062FC8046019905F095F90746F0
:1016B00005F0F6FA064618E15146484605F060FC8A
:1016C000834605F05DF907460022724B05F038F8B5
:1016D00041D85146484605F053FC834605F050F981
:1016E00007460022674B04F09BFF34D26249029800
:1016F00005F03EFB51460190484605F041FC5F492C
:10170000009005F035FB8346644905F065F9804695
:10171000019905F035FC074605F0C2FA0546564921
:10172000029805F025FB51460190484605F028FC3B
:10173000524900E021E0009005F01AFB834657492A
:1017400005F013FC8046019905F046F9074605F0BF
:10175000A7FA0646C9E05146484605F011FC834603
:1017600005F00EF907460022464B04F0E9FFA2D827
:101770004AF6EC1548F69466B7E05146484605F03F
:10178000C3FA98D24946504605F0FAFB834605F065
:10179000F7F8074600223F4B04F042FF32D23649A9
:1017A000029805F0E5FA49460190504605F0E8FB3D
:1017B0003949009005F0DCFA8346384905F0D5FB3D
:1017C0008046019905F0DCFB074605F069FA0546FD
:1017D0002949029805F0CCFA49460190504605F097
:1017E000CFFB2D49009005F0C3FA83462B4905F045
:1017F000F3F88046019905F0EFF8074605F050FA36
:10180000064672E04946504605F0BAFB834605F0AD
:10181000B7F8074600221F4B04F092FF54D8494600
:10182000504605F0ADFB834605F0AAF807460022B6
:10183000144B04F0F5FE47D20F49029805F098FAD0
:1018400049460190504605F09BFB0C49009005F07D
:101850008FFA8346114905F088FB8046019905F00F
:101860008FFB074605F01CFA05460349029805F070
:101870007FFA4946019013E00000484200003443DB
:1018800000504347000024401401234200812142BC
:1018900000C07240000014400000B44200401C47E9
:1018A000504605F06DFBAE49009005F061FA8346A5
:1018B000AC4905F091F88046019905F08DF807468E
:1018C00005F0EEF9064610E04946504605F058FB93
:1018D000834605F055F807460022A34B04F030FF7D
:1018E00003D848F694654AF6EC164946504605F08A
:1018F00047FB029001216842FEF761FF022130465A
:10190000FEF75DFF32462946AFF2F44003F0AAFA33
:101910009648006820B9AFF6901003F0A3FA03E0F0
:10192000AFF6881003F09EFA9048001D006820B9B9
:10193000AFF6841003F096FA03E0AFF6781003F0E8
:1019400091FAAFF2185003F08DFA012C0ED18748AE
:10195000006801281DD1052000F011FF83480068B0
:10196000012816D1A02000F00AFF13E0032C10D1AB
:101970007E48001D006801280BD1052000F0FFFE05
:101980007A48001D0068012803D1A02000F0F7FE6E
:1019900000E024E600BFBDE8FE8F2DE9F0470121FD
:1019A0007348FEF70CFF022147F23050FEF707FFA5
:1019B00034E07049B1F9040005F08EF905464FF0A6
:1019C0008E4105F077F80446654905F0D1F9824665
:1019D000504604F0D5FF044622460B4666A003F0AD
:1019E00041FA504604F0CCFF04460D4666480068B4
:1019F00004F0C6FF06460022644B04F0DBFB804681
:101A000022462B4604F00CFE08D201210020FEF7EE
:101A1000D6FE02210020FEF7D2FE00E0C9E700BF9B
:101A2000BDE8F08770B501215148FEF7C8FE0221DC
:101A300047F23050FEF7C3FE32E04E49B1F90400E0
:101A400005F04AF906464FF08E4105F033F8054699
:101A5000434905F08DF90446204604F091FF054600
:101A60002A460B4644A003F0FDF9204604F088FF07
:101A700005460022464B04F063FE08D3204604F0DE
:101A80007FFF05460022434B04F0CAFD08D2012126
:101A90000020FEF794FE02210020FEF790FE00E0F9
:101AA000CBE700BF70BD2DE9F04701213A48FEF7B2
:101AB00086FE022142F21070FEF781FE34E02D49CD
:101AC000B1F9040005F008F905464FF08E4104F025
:101AD000F1FF0446224905F04BF98246504604F0D6
:101AE0004FFF044622460B4623A003F0BBF92648CD
:101AF000006804F045FF06460022244B04F056FE21
:101B000004460D46504604F03BFF804622462B46D5
:101B100004F086FD08D201210020FEF750FE0221CC
:101B20000020FEF74CFE00E0C9E700BFBDE8F087EB
:101B300010B50120FEF7CAFE0220FEF7C7FE10BD59
:101B400010B50120FEF705FF0220FEF702FF10BDD1
:101B500010B50120FEF73AFF0220FEF737FF10BD57
:101B60000000344300401C4700002440140123427D
:101B7000F0D8FFFF4C0000205AD6E1BDC7B6C8A37D
:101B8000BA252E32660D0A00240000200080554040
:101B900000006640000066C0D08AFFFF10B540F22A
:101BA00025515D4802F07EF930B35B4802F0FAF847
:101BB000C4B25A48008800F40040E8B95748008889
:101BC00011280DDA55490888411C544A118054499E
:101BD0000C54084600787E2802D000201146088068
:101BE0004E480088C0F30E00112805D14B480088EC
:101BF00040F400404949088010BD10B586B0044645
:101C00000121082001F032FA0121880401F03BFA99
:101C1000414801F087FF4FF48060ADF814000320C5
:101C20008DF8160018208DF8170005A93D4800F022
:101C300061FF4FF40060ADF8140004208DF8170028
:101C400005A9384800F056FF01940020ADF80800BF
:101C5000ADF80A00ADF80C00ADF810000C20ADF89E
:101C60000E0001A92C4801F0A0FF01212A4802F032
:101C700028F8002240F22551274802F02EF806B03D
:101C800010BD08B527208DF8000003208DF8010055
:101C90008DF8020001208DF80300684600F061FE17
:101CA00000201E49088008BD10B5012240F22551D0
:101CB000194802F012F810BD10B5002240F225516B
:101CC000154802F00AF810BD38B5FFF7EDFF00BF68
:101CD0001248008800F400400028F9D01048407AEB
:101CE0008DF800000E48807A8DF801000C48C07A0B
:101CF0008DF802000A48007B8DF8030010220021B5
:101D0000684603F07EF90446002004490880FFF786
:101D1000D3FF204638BD0000004800405600002098
:101D20009E010020000C014010B586B00446012140
:101D30005A4801F0A8F90420ADF8140018208DF8D5
:101D4000170003208DF8160005A9554800F0D2FEB3
:101D50000820ADF8140004208DF8170005A950489C
:101D600000F0C8FE01940020ADF80800ADF80A00AC
:101D7000ADF80C00ADF810000C20ADF80E0001A974
:101D8000484801F012FF002240F22771454801F057
:101D9000A4FF012240F22551424801F09EFF40215C
:101DA000404802F076F801213E4801F08AFF2620E3
:101DB0008DF8000001208DF8010003208DF802004D
:101DC00001208DF80300684600F0CBFD0020364965
:101DD000088006B010BD10B540F22771314802F0FE
:101DE00061F8E0B1314802780078401C2F4B187040
:101DF0002F48815C2B4801F0D1FF40F22771294820
:101E000002F07AF8294800782A490978884217D1DF
:101E1000002240F22771234801F05FFF10E040F2FA
:101E20002551204802F03EF850B11E49091D09888D
:101E3000C8B2FEF77DFE40F225511A4802F05CF868
:101E40004FF45871174802F057F810BD10B504460A
:101E5000184801780078401C164A10701448445401
:101E6000012240F227710F4801F037FF10BD10B575
:101E700004460FE020780D2802D1FFF7E7FF08E0C5
:101E800020780A2802D1FFF7E1FF02E02078FFF76F
:101E9000DDFF641C20780028ECD110BD0500020095
:101EA0000008014000440040580000205A00002073
:101EB000070400205B00002008B50121702001F01C
:101EC000D5F80220ADF8000010208DF803000320A3
:101ED0008DF802006946FE4800F00CFE0221FC4825
:101EE00000F0B7FE0120ADF800006946F94800F0A7
:101EF00001FE0121F74800F0ACFE0220ADF8000021
:101F00006946F54800F0F6FD0221F34800F0A1FE15
:101F10001020ADF800006946ED4800F0EBFD1021FF
:101F2000EB4800F096FE08BD10B504460020EB49D2
:101F30000860012C03D10120E949086004E0032C6A
:101F400002D10120E74908601E2000F0F4FB0020C8
:101F5000E3490860E449C1F8840110BD1FB50121BF
:101F6000702001F083F80120ADF8000028208DF8E2
:101F700003006946D64800F0BDFD0220ADF8000020
:101F800028208DF803006946D24800F0B3FD0420F4
:101F9000ADF8000028208DF803006946CE4800F017
:101FA000A9FD0820ADF8000028208DF8030069463F
:101FB000C74800F09FFD0121084601F057F80021B5
:101FC000042000F0ADFE0120029000208DF80C00EE
:101FD00010208DF80D0001208DF80E0002A801F0F0
:101FE000B3FF0121032000F09BFE0220029002A813
:101FF00001F0AAFF0221084600F092FE04200290A0
:1020000002A801F0A1FF0321042000F089FE0820AE
:10201000029002A801F098FF06208DF8040000202D
:102020008DF805008DF8060001208DF8070001A845
:1020300000F097FC07208DF8040000208DF80500C3
:1020400001208DF806008DF8070001A800F089FC3A
:1020500008208DF8040000208DF8050002208DF87E
:10206000060001208DF8070001A800F07AFC092085
:102070008DF8040000208DF8050003208DF806007F
:1020800001208DF8070001A800F06BFC1FBD2DE9B1
:10209000FF5F012001F0BEFF01284ED19348006888
:1020A00070BB9348006804F06BFC82468B464FF08F
:1020B0008041888C04F0A1FA804600228D4B04F008
:1020C0002DF904460D468548006804F096FA064648
:1020D00022462B4604F06EF852465B46CDE90001DD
:1020E00004F064FBCDE9020104F032F88049086095
:1020F00081497F48006804F03BFE8049086019E090
:102100004FF08041888C04F078FA80460022794BA9
:1021100004F004F906460F467048006804F06DFAB2
:10212000824632463B4604F045F8044604F010F877
:102130006F490860012001F07EFFBDE8FF9F2DE997
:10214000FF5F022001F066FF012850D164487C380F
:10215000006870BB6A48006804F012FC82468B4637
:102160004FF08041888C04F048FA80460022614B91
:1021700004F0D4F804460D465848006804F03DFACF
:10218000064622462B4604F015F852465B46CDE93A
:10219000000104F00BFBCDE9020103F0D9FF58491F
:1021A000086055495648006804F0E2FD554908604A
:1021B0001AE0FFE74FF08041888C04F01EFA804659
:1021C00000224C4B04F0AAF806460F46434800682C
:1021D00004F013FA824632463B4603F0EBFF044616
:1021E00003F0B6FF46490860022001F024FFBDE875
:1021F000FF9F2DE9FF5F082001F00CFF012850D15F
:102200003A480C30006870BB3F48006804F0B8FBE7
:1022100082468B464FF08041888C04F0EEF9804670
:102220000022344B04F07AF804460D462B4800682F
:1022300004F0E3F9064622462B4603F0BBFF524664
:102240005B46CDE9000104F0B1FACDE9020103F0EB
:102250007FFF2D49086028492B48006804F088FD5D
:102260002A4908601AE0FFE74FF08041888C04F0AB
:10227000C4F9804600221F4B04F050F806460F4672
:102280001648006804F0B9F9824632463B4603F02E
:1022900091FF044603F05CFF1B490860082001F031
:1022A000CAFEBDE8FF9F2DE9FF5F042001F0B2FEEA
:1022B000012873D10B487C38006858BB144800686B
:1022C00004F05EFB82468B464FF08041888C22E012
:1022D0000018014000140140001001405C00002083
:1022E00080812242840122420000224200012342D6
:1022F0007400002000408F4000002A43700000203E
:1023000064000020600000207C0000207800002095
:102310006C00002025E004F070F980460022A44BF8
:1023200003F0FCFF04460D46A248006804F065F97E
:10233000064622462B4603F03DFF52465B46CDE95A
:10234000000104F033FACDE9020103F001FF9A49DC
:1023500008609A499848006804F00AFD98490860A6
:1023600019E04FF08041888C04F047F98046002244
:102370008F4B03F0D3FF06460F468E48006804F0EB
:102380003CF9824632463B4603F014FF044603F014
:10239000DFFE89490860042001F04DFEBDE8FF9F83
:1023A0007FB505460C460121084600F06CFEADF8ED
:1023B0000850ADF804400020ADF80A00ADF8060062
:1023C00001A94FF0804001F013FF01221146900750
:1023D00002F085FA1C208DF8000000208DF8010025
:1023E00003208DF8020001208DF80300684600F0FC
:1023F000B8FA0121880702F057FAFFF7AFFDFFF79F
:102400005BFD7FBD10B50121880702F016FD40B1CC
:102410000121880702F022FD66480068401C6549DA
:10242000086010BD70B5044666E02046FFF77CFDED
:10243000012C19D117E000216248006804F0FCFB70
:102440000BD06048056800205E4908605E49284658
:1024500004F05AFD07D2284670BD5648006814287B
:1024600001D90020F8E7E6E7022C12D100BF0021D5
:102470005648006804F0E0FBF9D054480568002095
:10248000524908605049284604F03EFD34D228469F
:10249000E2E7032C19D117E000214948006804F055
:1024A000CBFB0BD0464805680020454908604649EB
:1024B000284604F029FD07D22846CDE73D480068AC
:1024C000142801D90020C7E7E6E7042C12D100BF89
:1024D00000213F48006804F0AFFBF9D03C48056894
:1024E00000203B4908603849284604F00DFD03D21E
:1024F0002846B1E70020AFE797E72DE9F04399B010
:1025000005460026B046002700240BE02846FFF7CA
:1025100089FF05EB85016A4602EB810141F8240041
:10252000601CC4B2032CF1DB05EB85005DF8208054
:10253000002430E005EB85016A4602EB810151F889
:102540002400414604F0E0FB06D205EB8500694615
:1025500001EB800050F8248005EB85016A4602EB10
:10256000810151F82400314604F0CEFC06D205EB7F
:102570008500694601EB800050F8246005EB85007A
:102580006A4602EB800050F82410384604F024FA22
:102590000746601CC4B2032CCCDB4146304604F035
:1025A0001BFA8146394604F0E0FC19B0BDE8F0831F
:1025B00000408F405C0000206C00002000002A4397
:1025C00068000020600000200000C841700000206A
:1025D000780000207FB505460C460121022000F05E
:1025E00052FDADF80850ADF804400020ADF80A00E7
:1025F000ADF8060001A93E4801F0FAFD012211469E
:102600003B4802F06CF91D208DF8000000208DF889
:10261000010003208DF8020001208DF803006846B8
:1026200000F09FF90121324802F03EF97FBD10B55C
:10263000304A126802EB410200EB40032D4C04EBE0
:1026400083035A6010BD00EB40022A4B03EB820269
:102650009160704710B50121254802F0EEFB00287B
:1026600044D00121224802F0F9FB22488068224927
:10267000096891FBF0F200FB121090BB1D48006846
:102680001C494968884213DA00201C49086019482F
:1026900080681949096891FBF0F000F001001849C1
:1026A000C1F8980113480068401C1249086018E0FE
:1026B000104800680F494968884212DD01200F491F
:1026C00008600C4880680C49096891FBF0F000F044
:1026D00001000B49C1F8980106480068401E0549F1
:1026E000086005480068401C0349086010BD0000F0
:1026F0000004004008050020800000209C012142C9
:102700000000214210B56FF0040000F074F92E486B
:1027100000682E49B0FBF1F02D490870084600789A
:1027200000EB4001C1EBC0104FF6FF7101EAC000A1
:102730002849088010BD0146254A12784A434FF0C7
:10274000E0235A6100229A611A46126942F001029E
:102750001A6100BF4FF0E022106900F001021AB1C7
:1027600000F48032002AF5D04FF0E022126922F006
:1027700001024FF0E0231A6100229A61704701467E
:10278000144A12884A434FF0E0235A6100229A61AA
:102790001A46126942F001021A6100BF4FF0E022AE
:1027A000106900F001021AB100F48032002AF5D05D
:1027B0004FF0E022126922F001024FF0E0231A618B
:1027C00000229A61704700001000002000127A0079
:1027D0008400002086000020014600BF704700BF33
:1027E000494A128802F04002002AF9D0C2B2464B90
:1027F0001B1D1A80704710B586B00446012144F2B3
:10280000040000F033FC4FF40070ADF81400032016
:102810008DF8160018208DF8170005A93B4800F028
:1028200069F94FF48060ADF8140004208DF81700AA
:1028300005A9364800F05EF925208DF80000032038
:102840008DF801008DF8020001208DF80300684624
:1028500000F087F801940020ADF80800ADF80A00F8
:10286000ADF80C00ADF810000C20ADF80E0001A979
:10287000254801F09AF9012240F22551224801F041
:102880002CFA0121204801F01CFA06B010BD10B549
:1028900040F225511C4801F005FB10B31A4801F025
:1028A00081FAC4B21A48008800F40040C8B9184838
:1028B000008800F4804060B10A2C03D00020144945
:1028C000088020E01248008840F400401049088049
:1028D00019E00D2C06D10E48008840F480400C49C8
:1028E000088010E00A480088C0F30D0009490C5424
:1028F00007480088401C0649088008460088C72809
:1029000001DD0020088010BD0038014000080140B2
:102910008C00002020050020094880470948004716
:10292000FEE7FEE7FEE7FEE7FEE7FEE7FEE7FEE77F
:10293000FEE7FEE704480549054A064B70470000DC
:10294000D70300083101000848060020480C002089
:10295000480800204808002031490143314A1160ED
:10296000704770B5002100230F22C47804B32D4CAA
:10297000246804F4E064C4F5E064210AC1F10403AE
:10298000CA40447804FA03F18478144021430901D1
:10299000254C0678A155047804F01F050124AC40AD
:1029A00005786D11AD0005F1E025C5F8004109E09D
:1029B000047804F01F050124AC401C4D0678761104
:1029C00045F8264070BD1A4A0A400243154B1B1FAA
:1029D0001A60704739B1134A121D12680243114B35
:1029E0001B1D1A6006E00F4A121D126882430D4B30
:1029F0001B1D1A607047042808D14FF0E0210969B7
:102A000041F004014FF0E022116107E04FF0E021B6
:102A1000096921F004014FF0E022116170470000C4
:102A20000000FA050CED00E000E400E080E100E0C9
:102A300080FFFF1F10B50446CC48844208D1012115
:102A4000042000F02DFB0021042000F029FB46E0CB
:102A5000C748844208D10121082000F021FB002151
:102A6000082000F01DFB3AE0C248844208D1012151
:102A7000102000F015FB0021102000F011FB2EE0CB
:102A8000BD48844208D10121202000F009FB00212B
:102A9000202000F005FB22E0B848844208D1012143
:102AA000402000F0FDFA0021402000F0F9FA16E085
:102AB000B348844208D10121802000F0F1FA0021BE
:102AC000802000F0EDFA0AE0AE48844207D10121EF
:102AD000801500F0E5FA0021A01500F0E1FA10BD24
:102AE00010B50121084600F0DBFA0021012000F0BA
:102AF000D7FA10BD2DE9F04102460025002600203E
:102B000000230024002791F803C00CF00F0591F872
:102B100003C00CF0100CBCF1000F03D091F802C000
:102B20004CEA050591F800C0BCF1000F31D01468E3
:102B300000202BE04FF0010C0CFA00F3B1F800C0BC
:102B40000CEA03069E4220D183004FF00F0C0CFAD2
:102B500003F7BC4305FA03FC4CEA040491F803C0F4
:102B6000BCF1280F06D14FF0010C0CFA00FCC2F8A2
:102B700014C00AE091F803C0BCF1480F05D14FF032
:102B8000010C0CFA00FCC2F810C0401C0828D1D37C
:102B90001460B1F800C0BCF1FF0F34DD54680020B0
:102BA0002EE000F1080C4FF0010808FA0CF3B1F820
:102BB00000C00CEA03069E4221D183004FF00F0CA7
:102BC0000CFA03F7BC4305FA03FC4CEA040491F841
:102BD00003C0BCF1280F05D100F1080C08FA0CF86D
:102BE000C2F8148091F803C0BCF1480F07D100F17E
:102BF000080C4FF0010808FA0CF8C2F81080401CCD
:102C00000828CED35460BDE8F0814FF6FF710180F3
:102C1000022181700421C170704702460020936830
:102C20000B400BB1012000E000207047014688688E
:102C300080B2704702460020D3680B400BB10120E0
:102C400000E0002070470146C86880B2704701610B
:102C50007047416170470AB1016100E0416170470E
:102C6000C16070474FF480320A43826181618261A2
:102C700082698269704702460020434B18684FF60C
:102C80008073184040EA021008433F4B18607047B9
:102C90003E49C8617047F0B50A4600230024002170
:102CA000002500F00046B6F1004F02D1364EF16922
:102CB00001E0354E7168C0F3034583B200F440165D
:102CC000B6F5401F08D121F070612F4E766826F0CE
:102CD00070662D4F7E6012E000F48016B6F5801FFE
:102CE00006D1032606FA05F4A14341F0706106E01F
:102CF000460D360103FA06F6B14341F0706122B188
:102D0000460D360103FA06F6314300F00046B6F1EF
:102D1000004F02D11C4EF16101E01B4E7160F0BD0D
:102D200030B500228B071C0F0F2303FA04F2164B59
:102D300008338C1053F824309343134C08348D100F
:102D400044F8253023468C1053F824308C07240F88
:102D500000FA04F423430C4C08348D1044F8253059
:102D600030BD0A49DC3108607047000000080140AE
:102D7000000C014000100140001401400018014007
:102D8000001C0140002001400000014000002042E2
:102D9000DF48006840F00100DD49086008464068EF
:102DA000DC490840DA49486008460068DA490840CA
:102DB000D74908600846006820F48020086008466B
:102DC000406820F4FE0048604FF41F0088607047A0
:102DD000CF49096821F48031CD4A11601146096854
:102DE00021F480211160B0F5803F03D0B0F5802F31
:102DF0000ED106E0C649096841F48031C44A116029
:102E000007E0C349096841F4A021C14A116000E00C
:102E100000BF00BF704710B501460022002300200C
:102E20004A11012A02D1BA4C236806E0022A02D1D3
:102E3000B74C236A01E0B64C636A01F01F0201241B
:102E400094401C400CB1012000E0002010BD38B5BA
:102E5000002000900024002500BF3120FFF7DBFF99
:102E600005460098401C00900098B0F5A06F01D076
:102E7000002DF2D03120FFF7CEFF08B1012400E091
:102E80000024204638BD01460020A14A106820F0E9
:102E9000F80040EAC10010607047A0490860704720
:102EA000024600209A4B586820F47C1042EA010345
:102EB0001843974B58607047984908667047014619
:102EC0000020934A506820F0030008435060704788
:102ED0008F48406800F00C007047014600208C4A83
:102EE000506820F0F0000843506070470146002011
:102EF000874A506820F4E0600843506070470146FC
:102F00000020834A506820F4605040EAC1005060BD
:102F1000704729B17E4A527A02437D4B5A7204E0CF
:102F20007B4A527A82437A4B5A7270477B49D83136
:102F30000860704701460020754A506820F4404000
:102F40000843506070470021714A20321170704A66
:102F500082F82010012802D004280AD104E00121BF
:102F60006B4A2032117005E00521694A2032117048
:102F700000E000BF00BF70476949086070476449BE
:102F8000096A0143624A1162704765494439086021
:102F9000704730B500210022002400235C4D6D688D
:102FA00005F00C0121B1042905D0082923D105E041
:102FB0005C4D056022E05B4D05601FE0544D6D687F
:102FC00005F47012524D6D6805F48034022505EB4E
:102FD00092421CB9544D554305600BE04C4D6D6851
:102FE00005F400351DB1504D5543056002E04D4DCF
:102FF0005543056002E04B4D056000BF00BF444DE6
:103000006D6805F0F0010909484D6B5C0568DD400D
:1030100045603F4D6D6805F4E061090A434D6B5C06
:103020004568DD4085603A4D6D6805F46051C90A18
:103030003E4D6B5C4568DD40C560354D6D6805F4FF
:103040004041890B3A4D6B5CC568B5FBF3F50561F2
:1030500030BD29B12E4A526902432D4B5A6104E01A
:103060002B4A526982432A4B5A61704729B1284A38
:1030700092690243264B9A6104E0254A9269824391
:10308000234B9A61704729B1214AD2690243204BF0
:10309000DA6104E01E4AD26982431D4BDA6170474F
:1030A00029B11B4AD2680243194BDA6004E0184A7E
:1030B000D2688243164BDA60704729B1144A12690C
:1030C0000243134B1A6104E0114A12698243104B08
:1030D0001A61704712494039086070470F49C86447
:1030E00070470B49C87170470948406A40F08070CA
:1030F00007494862704701460020054A92680A4025
:103100000AB1012000E00020704701498872704731
:10311000001002400000FFF8FFFFF6FE00004242F0
:103120008004424200127A0000093D008E00002017
:103130009E00002010B50446FE48844209D10121BA
:103140004806FFF7BAFF00214FF00070FFF7B5FF08
:1031500008E001218806FFF7B0FF00214FF08060F2
:10316000FFF7ABFF10BD30B5024600200023146806
:1031700024F002041460146844F00104146000E0B8
:103180005B1C546804F001041CB94FF6FF74A342A1
:10319000F6D1546804F001040CB900206CE08C797D
:1031A000012C04D1146844F08004146003E0146816
:1031B00024F080041460CC79012C04D1146844F00C
:1031C0004004146003E0146824F0400414600C7A96
:1031D000012C04D1146844F02004146003E0146846
:1031E00024F0200414604C7A012C04D1146844F0BB
:1031F0001004146003E0146824F0100414608C7A46
:10320000012C04D1146844F00804146003E014682D
:1032100024F008041460CC7A012C04D1146844F022
:103220000404146003E0146824F0040414608C782F
:10323000A407CD7844EA05640D7944EA05444D7944
:1032400044EA05540D886D1E2C43D461146824F0A3
:1032500001041460002300E05B1C546804F00104C6
:103260001CB14FF6FF74A342F6D1546804F0010478
:103270000CB1002000E0012030BD10B50021837AA0
:10328000012202FA03F1AC4A126842F00102AA4B91
:103290001A60A94A1C3212688A43A74B1C331A6071
:1032A000027BCAB9A44A0C3212688A43A24B0C337F
:1032B0001A604288C38842EA03439F4A4032847AB4
:1032C00042F834300288838842EA03439A4A403203
:1032D000847A02EBC4025360027B012A19D1964A18
:1032E0000C3212680A43944B0C331A6042880388EC
:1032F00042EA0343904A4032847A42F83430C2882A
:10330000838842EA03438C4A4032847A02EBC40247
:103310005360C27A3AB9884A121D12688A43864BB2
:103320001B1D1A6006E0844A121D12680A43824B74
:103330001B1D1A60028932B97F4A143212688A430F
:103340007D4B14331A600289012A06D17A4A14325D
:1033500012680A43784B14331A60427B012A06D163
:10336000754A1C3212680A43734B1C331A60724A46
:10337000126822F00102704B1A6010BD00218171A9
:10338000C171017241728172C1728170C170032179
:10339000017102214171012101807047664909686C
:1033A00041F00101644A11601146096843F60E724A
:1033B0009143614A11601146096841EA0021116098
:1033C0001146096821F001011160704721B10268BE
:1033D00042F48032026003E0026822F4803202602C
:1033E0007047E1B1026842F0800202604FF4C2729D
:1033F000125842F480734FF4C27213504FF4CA72E1
:10340000125842F480734FF4CA7213504FF4D272C0
:10341000125842F480734FF4D27213501BE00268CA
:1034200022F0800202604FF4C272125822F48073BC
:103430004FF4C27213504FF4CA72125822F48073C0
:103440004FF4CA7213504FF4D272125822F48073A0
:103450004FF4D2721350704710B5024600209368A3
:1034600003F08063B3F1806F00D110E0936803F044
:103470000063B3F1006F01D1012008E0936803F00D
:103480008053B3F1805F01D1022000E004200428C2
:1034900079D002F5C07303EB00131B6803F001043D
:1034A00002F5C07303EB00131C600B7A7BB94B7AF7
:1034B0000C8843EA445302F5C07404EB00142468FA
:1034C000234302F5C07404EB0014236010E00B7A70
:1034D0004C6843EAC4034C7A234302F5C07404EBFE
:1034E00000142468234302F5C07404EB0014236025
:1034F0008B7A03F00F038B7202F5C07303EB00139A
:103500005B6823F00F0402F5C07303EB00135C60EB
:1035100002F5C07303EB00135B688C7A234302F55A
:10352000C07404EB001463608B7B1C064B7B44EA85
:10353000034403E000640040006600400B7B44EA63
:103540000323CC7A234302F5C07404EB0014A36078
:103550008B7C1C064B7C44EA03440B7C44EA03232B
:10356000CC7B234302F5C07404EB0014E36002F546
:10357000C07303EB00131B6843F0010402F5C07332
:1035800003EB00131C6010BD10B50246002321B1EF
:10359000012907D002290FD109E09068F94C00EA0F
:1035A00004030BE09068F84C00EA040306E090681E
:1035B000F64C00EA040301E0002300BF00BFF44C16
:1035C000181BA34216D007DC83B16FF0806018444B
:1035D00070B1022818D111E0B0F5007F10D0ED4C89
:1035E000204448B1B0F5003F0ED10BE002230DE0BE
:1035F00000230BE0002309E0002307E0012305E09E
:10360000012303E0012301E0002300BF00BFD8B283
:1036100010BD21B1012907D002290FD109E082682C
:1036200042F0800282600AE0826842F400428260D6
:1036300005E0826842F40002826000E000BF00BF43
:10364000704710B500F5D87303EB01131B6803F046
:1036500004031372137A53B900F5D87303EB011303
:103660001B6840F2FF7404EA5353136009E000F54D
:10367000D87303EB01131B686FF0604404EAD303B3
:10368000536000F5D87303EB01131B6803F00203CA
:10369000537200F5D87303EB01135B6803F00F035B
:1036A000937200F5D87303EB01135B681B0AD374A4
:1036B00000F5D87303EB01139B68D37200F5D87340
:1036C00003EB01139B681C0A147300F5D87303EB1A
:1036D00001139B681C0C547300F5D87303EB0113A2
:1036E0009B681B0E937300F5D87303EB0113DB6823
:1036F000D37300F5D87303EB0113DB681C0A147451
:1037000000F5D87303EB0113DB681C0C547400F54F
:10371000D87303EB0113DB681B0E937421B9C368E4
:1037200043F02003C36003E0036943F02003036117
:1037300010BD21B9C26842F02002C26003E00269F4
:1037400042F02002026170470246002019B9D36896
:1037500003F0030006E0012903D1136903F003001D
:1037600000E00020704710B502460B4600204FF6DF
:10377000FF71BBB9146824F0020444F00104146022
:1037800000E0491E546804F00304012C01D0002914
:10379000F7D1546804F00304012C01D0002032E07A
:1037A000012030E0012B13D1146824F003041460CD
:1037B00000E0491E546804F003040CB10029F8D15C
:1037C000546804F003040CB100201CE001201AE04E
:1037D000022B17D1146824F0010444F00204146091
:1037E00000E0491E546804F00304022C01D00029B3
:1037F000F7D1546804F00304022C01D0002002E049
:10380000012000E0002010BD014600200A6822F0DF
:10381000010242F002020A604A6802F00302022A30
:1038200000D10120704701464FF6FF7200200B685F
:1038300023F002030B6000E0521E4B6803F002030A
:10384000022B01D1002AF7D14B6803F00203022BAF
:1038500000D001207047014600208A6902F0700004
:103860007047014600208A69100E7047014600200B
:103870008A69C2F3074070471AB143690B43436139
:1038800002E043698B434361704710B50246002054
:1038900001F4700343B19369C1F3130423400BB1E6
:1038A00001202DE000202BE001F0807343B153682C
:1038B000C1F3130423400BB1012021E000201FE0DD
:1038C00001F0006343B19368C1F3130423400BB1CB
:1038D000012015E0002013E001F0007343B1D3682C
:1038E000C1F3130423400BB1012009E0002007E0DD
:1038F0001369C1F3130423400BB1012000E0002041
:1039000010BD0022244B994202D10023836111E0B3
:10391000C1F3130201F000730BB1C2600AE001F0C1
:1039200080630BB1026105E001F000630BB18260BE
:1039300000E0426070470246002002EA01030BB13A
:10394000012000E00020704770B504460D460026B7
:1039500060692840002872D0B5F5807F69D01DDCF1
:10396000082D42D006DC012D2DD0022D31D0042DA2
:103970007FD134E0102D3ED0202D42D0402D78D183
:1039800045E00000030000040003000800000310ED
:10399000000100080001FFF77000F030B5F5004F9E
:1039A00061D009DCB5F5007F4AD0B5F5806F4DD008
:1039B000B5F5006F5DD150E0B5F5803F2DD0B5F580
:1039C000003F56D12FE0A0685549FFF7B4FF0646E7
:1039D00051E0E0680321FFF7AEFF06464BE0E068E8
:1039E0000821FFF7A8FF064645E0E0681021FFF731
:1039F000A2FF06463FE020690321FFF79CFF064631
:103A000039E020690821FFF796FF064633E0206978
:103A10001021FFF790FF06462DE060680821FFF7B0
:103A20008AFF064627E060681021FFF784FF0646FC
:103A300021E0A0690121FFF77EFF06461BE01BE0A5
:103A4000A0690221FFF777FF064614E0A069042170
:103A5000FFF771FF06460EE00BE0A0697021FFF74B
:103A60006AFF064607E060680421FFF764FF064628
:103A700001E0002600BF00E00026304670BDB1F531
:103A8000007F3AD00FDC202928D006DC01291CD089
:103A900004291DD0082940D11DE0402921D0B1F5CD
:103AA000807F3AD126E0B1F5004F31D006DCB1F588
:103AB000806F25D0B1F5006F2FD124E0B1F5803FA4
:103AC00012D0B1F5003F28D111E0154A826025E0FF
:103AD0000822C26022E01022C2601FE008220261B8
:103AE0001CE01022026119E00822426016E0102258
:103AF000426013E00422426010E0042242600DE0C4
:103B0000042242600AE0002282610422426005E051
:103B1000002282610422426000E000BF00BF7047C3
:103B20000101010010B50446FB48844209D101217E
:103B30008803FFF7B5FA00214FF48040FFF7B0FA91
:103B400032E0F648844209D101214804FFF7B5FA72
:103B500000214FF40030FFF7B0FA25E0F04884422E
:103B600009D101218804FFF7A8FA00214FF4802031
:103B7000FFF7A3FA18E0EB48844209D10121C804F9
:103B8000FFF79BFA00214FF40020FFF796FA0BE0B5
:103B9000E548844208D101210805FFF78EFA00218B
:103BA0004FF48010FFF789FA10BD2DE9F04786B079
:103BB00005460E460024A24600BFA1460027B08954
:103BC00000B100BF2F462C8A4CF6FF700440F088ED
:103BD00004432C82AC894EF6F3100440B08831893E
:103BE0000843718908430443AC81AC8A4FF6FF4017
:103BF0000440B0890443AC8201A8FFF7CAF9C64863
:103C0000874202D1DDF810A001E0DDF80CA0A88900
:103C100000F4004040B10AEBCA0000EB0A10316822
:103C20004900B0FBF1F807E00AEBCA0000EB0A100C
:103C300031688900B0FBF1F86420B8FBF0F00401B2
:103C40002009642101FB1089A88900F4004040B1DB
:103C5000322000EBC900B0FBF1F000F00700044394
:103C600008E0322000EB09106421B0FBF1F000F015
:103C70000F0004432C8106B0BDE8F0874FF41651C5
:103C8000016000218180C18001810C2141810021DE
:103C90008181704710B502460020108A4FF2FF0361
:103CA00018400B884C8823438C882343CC882343BB
:103CB0001843108210BD0021018041808180C180A5
:103CC000704721B1828942F40052828104E08289E6
:103CD0004DF6FF731A4082817047F0B50346002409
:103CE00000260025002040F66A17B94200D100BF27
:103CF0001846C1F3421401F01F06012707FA06F522
:103D0000012C01D10C3004E0022C01D1103000E074
:103D100014301AB107682F43076002E00768AF4309
:103D20000760F0BD1AB1838A0B43838202E0838A65
:103D30008B4383827047028A4FF6F0731A400282E7
:103D4000028A0A430282704782894FF2FF731A4047
:103D5000828182890A438281704721B1828942F03F
:103D60000202828104E082894FF6FD731A4082814B
:103D70007047028A4FF6DF731A400282028A0A43B2
:103D80000282704721B1028A42F48042028204E03A
:103D9000028A4BF6FF731A4002827047C1F3080291
:103DA0008280704701468888C0F308007047818987
:103DB00041F0010181817047028BD2B20283028BF4
:103DC00042EA012202837047028B02F47F4202839F
:103DD000028B0A430283704721B1828A42F020029B
:103DE000828204E0828A4FF6DF731A408282704733
:103DF00021B1828A42F01002828204E0828A4FF668
:103E0000EF731A408282704721B1828A42F0080221
:103E1000828204E0828A4FF6F7731A4082827047EA
:103E200021B1828942F40042828103E08289C2F397
:103E30000E028281704721B1828A42F4006282823E
:103E400004E0828A4FF2FF731A4082827047828AAE
:103E50004FF6FB731A408282828A0A43828270473D
:103E600021B1828A42F00202828204E0828A4FF605
:103E7000FD731A408282704702460020B1F5007F30
:103E800000D100BF13880B400BB1012000E00020DF
:103E9000704701F40072B2F5007F00D100BFCA4341
:103EA0000280704770B502460024002300250020E0
:103EB00040F66A16B14200D100BFC1F3421501F0CD
:103EC0001F03012606FA03F3012D02D19689334020
:103ED00006E0022D02D1168A334001E0968A334073
:103EE0000C12012606FA04F41688344013B10CB102
:103EF000012000E0002070BD10B50022002340F634
:103F00006A14A14200D100BF0A1201249440A3B256
:103F1000DC43048010BD0000003801400044004034
:103F200000480040004C0040005000400020444940
:103F30000860091D0860091D0860091D08604148E6
:103F40003F4914310860704700213D498279002AB9
:103F50003AD00A46126803689A430B461A600A1D53
:103F6000126803689A430B1D1A60027911440A68AB
:103F700003681A430A60324A0832126803689A4397
:103F80002F4B08331A601A1D126803689A432C4B92
:103F90000C331A604279102A0ED11A1F1268036876
:103FA0001A43274B08331A601A1D126803681A4314
:103FB000234B0C331A600DE02149427911440A6801
:103FC00003681A430A6005E0027911440A6803682D
:103FD0009A430A6070470021016001710C21417110
:103FE0000021817170471649103109680143144A54
:103FF00010321160704701460020114A14321268D5
:104000000A400AB1012000E0002070470C49143139
:1040100008607047014600200022094B1B6803EA34
:104020000102074B14331B680B4013B10AB1012086
:1040300000E000207047024914310860704700001A
:1040400000040140FFFF0F0010B50446FE48844203
:1040500008D10121C014FFF723F80021E014FFF775
:104060001FF8C4E0B4F1804F08D101210846FFF7E2
:1040700024F800210120FFF720F8B8E0F34884423B
:1040800008D101210220FFF718F800210220FFF7D4
:1040900014F8ACE0EE48844208D101210420FFF777
:1040A0000CF800210420FFF708F8A0E0E94884425A
:1040B00008D101210820FFF700F800210820FEF7B1
:1040C000FCFF94E0E448844208D101211020FEF76F
:1040D000F4FF00211020FEF7F0FF88E0DF48844263
:1040E00008D101212020FEF7E8FF00212020FEF763
:1040F000E4FF7CE0DA48844208D101214014FEF755
:10410000CFFF00216014FEF7CBFF70E0D54884425A
:1041100009D10121C804FEF7C3FF00214FF400209C
:10412000FEF7BEFF63E0D048844209D101210805B3
:10413000FEF7B6FF00214FF48010FEF7B1FF56E006
:10414000CA48844209D101214805FEF7A9FF002190
:104150004FF40010FEF7A4FF49E0C548844208D19F
:1041600001214020FEF7A9FF00214020FEF7A5FF16
:104170003DE0C048844208D101218020FEF79DFF28
:1041800000218020FEF799FF31E0BB48844208D12E
:1041900001218015FEF791FF0021A015FEF78DFF8C
:1041A00025E0B648844209D101210804FEF778FFD2
:1041B00000214FF48030FEF773FF18E0B0488442CE
:1041C00009D101214804FEF76BFF00214FF40030B4
:1041D000FEF766FF0BE0AB48844208D1012188045A
:1041E000FEF75EFF00214FF48020FEF759FF10BD5F
:1041F00000220288944B98420ED0994B98420BD0E3
:10420000B0F1804F08D0914B984205D0904B984226
:1042100002D0904B984204D14FF68F731A404B88CE
:104220001A438D4B984207D08C4B984204D04FF6DE
:10423000FF431A40CB881A4302808B8883850B8802
:104240000385814B98420BD0854B984208D08B4B0D
:10425000984205D08A4B984202D08A4B984201D1AD
:104260000B7A038601238382704770B500240022F5
:104270000023058C4FF6FE7635400584028C83883A
:10428000048B4FF68F752C40B51E2C400D882C43A7
:10429000751E2A400D892A434D882A436A4DA8423B
:1042A0000BD06F4DA84208D0744DA84205D0744D74
:1042B000A84202D0734DA84213D14FF6F7752A4099
:1042C0004D892A434FF6FB752A408D882A434FF6C5
:1042D000FF652B404FF6FF552B408D892B43CD8931
:1042E0002B4383800483CD888586028470BD70B59E
:1042F000002400220023058C4FF6EF76354005841C
:10430000028C8388048B48F6FF752C404FF6FF45DE
:104310002C400D884FF6FF7606EA05252C434FF614
:10432000DF752A400D8906EA05152A434D8806EAFD
:1043300005152A43444DA84202D0494DA8421DD13B
:104340004FF67F752A404D894FF6FF7606EA051530
:104350002A434FF6BF752A408D8806EA05152A4381
:104360004FF6FF352B404FF2FF752B408D8906EA43
:1043700085052B43CD8906EA85052B43838004837D
:10438000CD880587028470BD70B50024002200230B
:10439000058C4FF6FF6635400584028C8388848B3C
:1043A0004FF68F752C404FF6FC752C400D882C4332
:1043B0004FF6FF552A400D894FF6FF7606EA052590
:1043C0002A434D8806EA05252A431F4DA84202D0FC
:1043D000234DA8421DD14FF2FF752A404D894FF65B
:1043E000FF7606EA05252A434FF6FF352A408D88D9
:1043F00006EA05252A434EF6FF752B404DF6FF755C
:104400002B408D8906EA05152B43CD8906EA051553
:104410002B4383808483CD888587028470BD70B5EB
:10442000002200230024058C4EF6FF7635400584DB
:10443000038C8488828B48F6FF752A404FF6FF452F
:104440002A400D8820E00000002C014000040040BC
:1044500000080040000C0040001000400014004024
:1044600000340140004C0140005001400054014024
:1044700000180040001C00400020004000400140A7
:1044800000440140004801404FF6FF7606EA05254A
:104490002A434DF6FF752B400D8906EA05352B435F
:1044A0004D8806EA05352B43FA4DA84202D0FA4D55
:1044B000A84208D14BF6FF752C408D894FF6FF7648
:1044C00006EA85152C4384808283CD88A0F840506D
:1044D000038470BD828B4FF2FF331A408283828B3C
:1044E0004FF6FF7303EA01231A4382837047F0B546
:1044F0000C461546002200210026078C4EF6FF7C54
:1045000007EA0C070784828B018C4FF6FF7707EAD6
:10451000043640F6FF473A404FF6FF7707EA052793
:104520003A434FF6FF7707EA03373A43D94FB84289
:104530000ED0D94FB8420BD0B0F1804F08D0D74F32
:10454000B84205D0D64FB84202D0D64FB84206D1B5
:104550004DF6FF77394046F48057394305E047F67A
:10456000FF57394044F48057394382830184F0BDBA
:10457000828B4FF6F3731A408283828B0A438283C5
:104580007047F0B50C461546002200210026078C26
:104590004FF6FF6C07EA0C070784828B018C4FF6FD
:1045A000FF7707EA04264FF60C773A404FF6FF777D
:1045B00007EA03172F433A43B64FB8420ED0B64F1F
:1045C000B8420BD0B0F1804F08D0B44FB84205D0FC
:1045D000B34FB84202D0B34FB84206D14FF6FF579F
:1045E000394046F48077394305E04FF2FF573940B0
:1045F00044F48077394382830184F0BD028B4FF20B
:10460000FF331A400283028B4FF6FF7303EA012344
:104610001A4302837047F0B50C461546002200216C
:104620000026078C4FF6EF7C07EA0C070784028B05
:10463000018C4FF6FF7707EA041640F6FF473A4031
:104640004FF6FF7707EA03373A434FF6FF7707EA5B
:1046500005273A438F4FB8420ED08F4FB8420BD048
:10466000B0F1804F08D08D4FB84205D08C4FB84282
:1046700002D08C4FB84206D14FF6DF77394046F072
:104680001007394305E04FF65F77394044F01007D3
:10469000394302830184F0BD028B4FF6F3731A4055
:1046A0000283028B0A4302837047F0B50C4615461D
:1046B00000220021068C4FF6FE773E400684028BD6
:1046C000018C4FF60C7632407E1C06EA03162E4310
:1046D0003243704EB0420ED06F4EB0420BD0B0F1AC
:1046E000804F08D06D4EB04205D06D4EB04202D022
:1046F0006C4EB04206D14FF6FD76314044F00106D3
:10470000314305E04FF6F576314044F00106314380
:1047100002830184F0BD70B505460C465D488542B4
:104720000ED05D4885420BD0B5F1804F08D05B4874
:10473000854205D05A48854202D05A48854200D168
:1047400000E000BF208850B92389A28861882846EC
:10475000FFF7ABFFE1882846FFF79EFF25E02088A2
:1047600004280AD12389A28861882846FFF753FFCD
:10477000E1882846FFF742FF17E0208808280AD181
:104780002389A28861882846FFF7FBFEE188284636
:10479000FFF7EEFE09E02389A28861882846FFF72B
:1047A000A6FEE1882846FFF795FE70BD2DE9F04191
:1047B00005460C4600260127608808B9022600E05D
:1047C0000026A088012801D1022700E001272088C7
:1047D000A0B92389A28861882846FFF766FFE1888F
:1047E0002846FFF759FF23893A4631462846FFF706
:1047F00012FFE1882846FFF701FF13E02389A28812
:1048000061882846FFF707FFE1882846FFF7F6FE94
:1048100023893A4631462846FFF747FFE188284674
:10482000FFF73AFFBDE8F0810A884B881A438B886E
:104830001A43CB881A430B891A434B891A438B8935
:104840001A43A0F8442070474FF6FF718180002181
:104850000180C18041800172704700210180418048
:104860008180C180018141818181C18170470021A6
:1048700001804180012181800021C1800181704738
:104880000021018041808180C1800181418181813D
:1048900070470000002C014000340140000400403B
:1048A00000080040000C004021B1028842F00102E3
:1048B000028004E002884FF6FE731A4002807047BF
:1048C00031B1B0F8442042F40042A0F8442005E0A1
:1048D000B0F84420C2F30E02A0F8442070471AB189
:1048E00083890B43838102E083898B4383817047F3
:1048F0008182704741EA0203A0F8483070471AB13C
:1049000083890B43838102E083898B4383817047D2
:1049100001894FF6F8721140018170470A46002163
:1049200001894FF68F73194011430181704730B5EB
:1049300004460D4629462046FFF7F0FF208940F047
:104940000700208130BD2DE9F04104460D46164692
:104950001F46602D06D13B46012231462046FFF717
:104960005AFE05E03B46012231462046FFF79DFEF8
:1049700029462046FFF7D2FF208940F0070020811A
:10498000BDE8F08130B50C4600210189C9B24FF66F
:10499000FF7505EA0325154325432943018130BDF1
:1049A0002DE9F04105460E46174698460024434639
:1049B0003A4631462846FFF7E5FF2C894FF6F87056
:1049C000044044F007044FF68F70044044F0700434
:1049D0002C81BDE8F081F0B504460D4616461F4611
:1049E0003B46324629462046FFF7CCFF208940F45B
:1049F00080402081F0BD0185828270470A460021F7
:104A000001884FF68F731940114301807047F0B54C
:104A10000C4615461E460021002200230189028B08
:104A2000038C4FF6F877394021434FF6FC473A4064
:104A300040F201173A434FF6DD773B404FF6FF77E0
:104A400007EA06172F433B43018102830384F0BD2D
:104A50000A460021018B4FF68F73194011430183E1
:104A600070470A460021018B48F6FF7319404FF644
:104A7000FF7303EA02231943018370470A460021AA
:104A8000818B4FF68F7319401143818370470A461B
:104A90000021818B48F6FF7319404FF6FF7303EA3C
:104AA000022319438183704721B1028842F08002BA
:104AB000028004E002884FF67F731A40028070473C
:104AC00021B1828842F00402828004E082884FF69D
:104AD000FB731A408280704721B1828842F008023D
:104AE000828004E082884FF6F7731A408280704714
:104AF00021B1828842F00102828004E082884FF670
:104B0000FE731A40828070470A460021018B4FF6DF
:104B1000F77319401143018370470A460021018B46
:104B20004FF2FF7319404FF6FF7303EA0223194354
:104B3000018370470A460021818B4FF6F7731940B5
:104B40001143818370470A460021818B4FF2FF7326
:104B500019404FF6FF7303EA02231943818370471C
:104B60000A460021018B4FF6FB7319401143018364
:104B700070470A460021018B4FF6FF3319404FF66C
:104B8000FF7303EA02231943018370470A46002199
:104B9000818B4FF6FB7319401143818370470A469E
:104BA0000021818B4FF6FF3319404FF6FF7303EA64
:104BB00002231943818370470A460021018B4FF677
:104BC0007F7319401143018370470A460021018B0E
:104BD000C1F30E014FF6FF7303EA02231943018369
:104BE00070470A460021818B4FF67F7319401143AD
:104BF000818370470A460021818BC1F30E014FF675
:104C0000FF7303EA02231943818370470A46002198
:104C1000018C4FF6FD7319401143018470470A4619
:104C20000021018C4FF6F77319401143018470473E
:104C30000A460021018C4FF6DF7319404FF6FF73CF
:104C400003EA02131943018470470A460021018CCC
:104C50004FF67F7319404FF6FF7303EA02131943AF
:104C6000018470470A460021018C4FF6FF5319401A
:104C70004FF6FF7303EA02231943018470470A4683
:104C80000021018C4FF2FF7319404FF6FF7303EAC6
:104C900002231943018470470A460021018C4DF616
:104CA000FF7319404FF6FF7303EA0233194301847F
:104CB000704730B5002301248C40A3B2048C9C4380
:104CC0000484048C02FA01F5ADB22C43048430BD97
:104CD00030B5002304248C40A3B2048C9C4304848C
:104CE000048C02FA01F5ADB22C43048430BD70B5DA
:104CF0000346002000241846183001258D40ACB230
:104D00001D8CA5431D8409B1082909D100EB610060
:104D1000056825F0700505600568154305600EE01F
:104D20000D1FC5F34E052844056825F4E0450560D0
:104D300005684FF6FF7606EA02263543056070BD2A
:104D400021B1028842F00202028004E002884FF69C
:104D5000FD731A400280704721B1028842F00402BC
:104D6000028004E002884FF6FB731A40028070470D
:104D700021B1828842F08002828004E082884FF66E
:104D80007F731A408280704702884FF6F7731A408B
:104D9000028002880A430280704782884FF68F7330
:104DA0001A40828082880A438280704702894FF6C7
:104DB000F8731A40028102890A430281704702890E
:104DC0004FF67F731A40028102890A4302817047BD
:104DD000818470478185704781867047018770475D
:104DE00081877047A0F84010704702884FF6FF4354
:104DF0001A40028002880A43028070470146888E6A
:104E000070470146088F70470146888F70470146FA
:104E1000B1F8400070470146888C70470146088D04
:104E2000704702460020138A0B400BB1012000E0BE
:104E300000207047CA430282704730B50246002006
:104E400000230024158A05EA0103958905EA010477
:104E500013B10CB1012000E0002030BDCA43028232
:104E6000704770470FB4044910B503AA029800F0C8
:104E700077FB10BC5DF814FB880000202DE9F041A1
:104E80000646002410687529314616A510D0AFF3E8
:104E90000080002802DA404213A507E031688A0743
:104EA00001D512A502E0490704D511A5012401E0AE
:104EB000AFF3008000210A2206F1240709E0B0FBCD
:104EC000F2FCB0FBF2F302FB1C00303078541846C1
:104ED000491C0028F3D123462A463046BDE8F0415C
:104EE00000F0D8B8000000002D0000002B000000EA
:104EF000200000002DE9F0474FF0000A89460446E3
:104F0000C0F820A02046E1688847002876D02528F0
:104F100006D0D4E901219047206A401C2062F1E7C5
:104F2000E168204600258847C4F81CA006460027F3
:104F3000C4F818A02A2E09D0304601F0D6F838B3AC
:104F400004EB8708303EC8F8186019E059F8041BD4
:104F5000204604EB87029161E1688847012F0646ED
:104F600018D1E069002820DA25F020051DE0D8F8E6
:104F7000180000EB800006EB40003038C8F818003D
:104F80002046E1688847064601F0AFF80028EED1D8
:104F9000012F0AD02E2E08D12046E16888477F1CB9
:104FA0000646022F45F02005C4DBA069002803DA7D
:104FB000404245F00105A061E80701D025F0100549
:104FC000B6B1A6F14100192802D8203645F4006593
:104FD0004A463146204625604D46FBF7E3F858B176
:104FE000012806D0ED1D25F0070000F1080989E72A
:104FF00004E005F1040985E730468AE7206ABDE848
:10500000F0872DE9F04791460F468046044600267A
:1050100014F8015B2DB100F031F80068405DC00765
:10502000F6D12B2D02D02D2D18D0641E4A463946BC
:10503000204600F0A7FA27B13968A14201D1C7F88C
:1050400000804FF0020471050BD54042002803DDBB
:1050500000F01CF80460A007BDE8F08746F4806605
:10506000E4E70028F8DA00F011F804606FF000407F
:10507000F2E77047704770477047000010B500F0C6
:10508000D5FA001D10BD00BF711000000048704728
:10509000E80500202DE9F0470D4699469246044662
:1050A00000F124080168880604D5E06921F01001A8
:1050B000216000E00120A84201DD471B00E000273D
:1050C000A1697A1902EB0900081AA0612078C006CC
:1050D00002D42046AFF30080002608E0D4E9012185
:1050E0001AF806009047206A401C761C20624E4544
:1050F000F4DB2078C0060AD52046AFF3008006E036
:10510000D4E9012130209047206A401C2062381EDB
:10511000A7F10107F4DC07E0D4E9012118F8050044
:105120009047206A401C2062281EA5F10105F3DC8F
:105130002046AFF300802078000602D50220BDE8AB
:10514000F0870120FBE770472DE9FF4F0C461E4614
:105150004FF0FF378BB0D2E90001DDF860800A9094
:105160008A46C1F30A5505B93D46002108464FF06D
:105170000000BAF1000F00F4400005DA00EB8000F7
:105180004FF4400101EA50004FEA9059B9F1010F84
:1051900000DDB9460A9850EA4A000ED044F6105095
:1051A000A5F2FF3545432F14B8F1000F1ED075420C
:1051B000291E1EDDC9F100021CE0B8F1010F4FF0FD
:1051C000000001D0302103E0F24305E02154401CEF
:1051D000B042FBDB30460022002121540B99C1F87C
:1051E0000880C1E900200FB0BDE8F08FBD1B6D1C29
:1051F000DEE74A4600DA694206A800F0C7FA06ABC5
:1052000093E8070003AB83E8070050460A9900F0D3
:105210009DFB8DE80700A0F500501F380090039813
:10522000002D09DD42F21F014A46084403A90390FC
:10523000684600F0FCFD08E0A0F500504A461F3823
:1052400003A90390684600F006FE8DE807000004FD
:10525000000C03D04FF0FF30410800E01046B8F1D9
:10526000000F03D00022009215461EE0751E05D4E3
:1052700000F0E0F9303262556D1EF9D5B3460122D7
:10528000084302D000227F1C04E02078302801D19E
:1052900000227F1E002A099786D01DE0112D07DA13
:1052A00000F0C8F9303262556D1C50EA0102F5D1A8
:1052B000084302D00098C8B10EE00021681E05E046
:1052C000235C625C63542254401E491C8142F7DB1C
:1052D000AB46A81B401E0990002004F80B000B9859
:1052E000099AC0F80880C0E9002B7CE711264FF02E
:1052F000000859E72DE9F04F88460446D21D22F0F8
:10530000070191B0D1E90001CDE90A0100F0D9FE11
:1053100002460B98C00F01D02D2007E020688107BE
:1053200001D52B2002E0202101EAC000032A0990C8
:1053300001D0072A05DB03464146204600F0D8F994
:105340000BE12078800601D5E06900E00620B8F185
:10535000650F814606D0B8F1660F18D0B8F1670F17
:1053600070D131E00020B9F1110F009001DB112361
:1053700001E009F101030AAA01A90CA8FFF7E4FE64
:10538000DDE90C70002609F10105834647E00120A4
:105390004B4600904FF000470AAA01A90CA8FFF75E
:1053A000D3FEDDE90DB00C995D46002610B909F178
:1053B00001000D18B9EB050003D4C0F1FF3609F167
:1053C0000105A5EB09002BE0B9F1010F01DA4FF05F
:1053D00001090020B9F1110F0090484601DD1123A9
:1053E00000E003460AAA01A90CA8FFF7ADFEDDE91B
:1053F0000C704D4600268346207800070AD4AB4542
:1054000000DA5D4601A8012D04DD411911F8011CE7
:10541000302907D04F4502DA17F1040F04DA0120D2
:1054200082460FE06D1EEEE7002F02DCED1B3E44CE
:1054300003E0781CA84200DD7D1CB81B00F1010AC6
:105440004FF000472078000703D4AA4501DB4FF056
:10545000FF3A0021B7F1004F0DF143088DF84310DA
:1054600024D002202B23002F01DA7F422D230A2192
:10547000021EA0F1010000DC5FB197FBF1FC97FB7D
:10548000F1F201FB1C7C17460CF1300C08F801CD41
:10549000EEE7A8F1010003702188090501D5452137
:1054A00000E06521A0F1010800F8011C09980FA98E
:1054B000A1EB0807FF1D00B10120411901EBEA70C3
:1054C000A1693844081A401EA0612078C00602D4A1
:1054D0002046AFF30080099828B1D4E90121904714
:1054E000206A401C20622078C00622D52046AFF3F7
:1054F00000801EE0002E04DBB34502DD01A8805DC4
:1055000000E03020D4E901219047206A401C20624D
:10551000761CAAF101005FEA000A0AD100F086F8C1
:10552000C0680168405CD4E901219047206A401CB2
:105530002062281EA5F10105DCDC07E0D4E9012189
:1055400018F8010B9047206A401C2062381EA7F112
:105550000107F3DC2046AFF30080032011B043E6DF
:10556000074B70B50D467B4400F0AFF80446284663
:1055700000F07AF910B14FF0FF3070BD204670BDD9
:1055800075D2FFFF2DE9F05F824615468B46002756
:105590000AF10104B9460078302801D09DB113E02A
:1055A00014F8010B0127782803D0582801D045B101
:1055B0000AE00DB1102D07D1002714F8010B1025BA
:1055C00002E0082500E00A250026B0460EE005FBB3
:1055D000080005FB06F101271FFA80F801EB1046D1
:1055E000B6F5803F00D3B94614F8010B294600F008
:1055F000BFF80028EBDABBF1000F05D00FB1641E35
:1056000000E05446CBF80040B9F1000F06D0FFF798
:105610003DFD02210160C81EBDE8F09F48EA06403A
:10562000FAE7000000487047E8050020004870478E
:105630000806002030B5B0F10A024FEA900E71F171
:1056400000034EEA817EB0EB0E0061EB91014FEA60
:10565000101E4EEA017E10EB0E0041EB11114FEAD5
:10566000102E4EEA016E10EB0E0041EB11214FEAB5
:10567000104E4EEA014E10EB0E0041EB1141401866
:1056800041F100014FEAD00040EA41704FEAD101F8
:1056900010EB80054FEA810444EA907444EB010466
:1056A0006D1944EB0404521BA3414FF0000348BFA3
:1056B0000A3200D530BD401C41F1000130BD000070
:1056C00001694A1C02610878704700B58FB0CDE9C6
:1056D00001310021059105497944CDE903101146B6
:1056E0006846FFF707FC0FB000BD0000E5FFFFFFB5
:1056F0002DE9F0411F46044603260168072A01F4FC
:10570000006004DB08B116A505E016A503E008B1AA
:1057100015A500E015A521F010002060A069C01EAD
:10572000A0610FB1401EA0612046AFF300804FB1D1
:10573000D4E9012138469047206A401C2062C01CF1
:10574000206206E0206AFAE7D4E9012115F8010B8E
:105750009047761EF8D22046AFF30080BDE8F08176
:105760004E414E006E616E00494E4600696E660005
:105770003A2800D2303820F02002412A01D3A2F189
:105780003700884201D34FF0FF3070472DE9F047D2
:10579000814616468AB0334878440DC88DE80D001E
:1057A00030487844801C03AC0DC884E80D0041F6F5
:1057B0009B300844372190FBF1F290FBF1F5A5F105
:1057C000800501FB12041B3C02D56442012000E06D
:1057D0000020DFF890A080460027FA44AAF1BE0A14
:1057E0000DE0E00709D03246684607EB47010AEBB7
:1057F000810100F030FB8DE8070064107F1C002C55
:10580000EFD1184F7F44AC3F18E0E80714D007EB06
:1058100004100DF1180A90E80E008AE80E00C06826
:10582000F04201D198190890324606A903A800F069
:1058300012FB03AB83E807006D10641C002DE4D15C
:1058400032466946B8F1000F03A802D000F0EFFA23
:1058500001E000F000FBC9E90001C9F808200AB026
:10586000BDE8F08750190000007B00F08000704711
:105870007546FFF7D7FEAE4605006946534620F051
:105880000700854618B020B5FDF754F8BDE8204064
:105890004FF000064FF000074FF000084FF0000BEC
:1058A00021F00701AC46ACE8C009ACE8C009ACE89F
:1058B000C009ACE8C0098D46704710B50446AFF387
:1058C00000802046BDE81040FAF78FBC4FF0013C45
:1058D00050F8042B51F8043B9A4221D1A2EB0C035F
:1058E000934313EACC1317D150F8042B51F8043B1F
:1058F0009A4215D1A2EB0C03934313EACC130BD1BC
:1059000050F8042B51F8043B9A4209D1A2EB0C0346
:10591000934313EACC13DBD04FF00000704700BF75
:10592000D01A01BAB1FA81F101F0180122FA01F09E
:10593000CB40C1F12001DBB2C0B2C01A2CFA01F396
:10594000D11A914311EAC311E6D170475FEA400CC6
:1059500008BF91F0000F4FEA8C234FEAC12243EABF
:1059600051514FEA1C5018BF00F5F0404FEA30008B
:1059700018BF41F000415FEA6C5C00F02980BCF187
:10598000FF3F08BF40F080407047130C06BF120471
:105990004FF0100C4FF0000C130E04BF12020CF16C
:1059A000080C130F04BF12010CF1040C930F04BF79
:1059B00092000CF1020CD30F04BF52000CF1010C49
:1059C00011464FF00002A0F11F00A0EB0C00704741
:1059D00011F0004F08BF704731F000413FF4D5AFE0
:1059E0000B0C06BF09044FF0100C4FF0000C0B0E0F
:1059F00004BF09020CF1080C0B0F04BF09010CF1E4
:105A0000040C8B0F04BF89000CF1020CCB0F04BFF8
:105A100049000CF1010CCCF12003A0EB0C0022FAA0
:105A200003F302FA0CF241EA030100F101007047AE
:105A300020F07F4C80EA030023F07F47ACEB0703A4
:105A400003F57C5300F0004003F1FF032DE980498A
:105A50004FEA154B09B44FEA144325EA0B4E24EAEA
:105A600003480FF2042606EB132749083E785FEA45
:105A7000320203FB0667C7F5000707FB06F64FEA8D
:105A800054374FEAD64606F1020607FB066CCCF106
:105A9000005C4FEA1C472CEA074C07FB06F40CFBA2
:105AA00006F504EB15464FEA961634BF00204FF07A
:105AB00000404FEAD13706FB07FC4FEA1C4C0CFBB9
:105AC0000BF7D21B03FB0CF761EB07010CFB0EF786
:105AD000B0EB074072EB17420CFB08F734BFA2EBA8
